:020000040800F2
:10000000C01800209D010008AF4700089D3E000871
:10001000AD470008CD0B0008DD52000800000000CD
:100020000000000000000000000000003B4C000841
:100030007D0D000800000000394C00083D4C000810
:10004000B7010008B7010008B7010008B7010008B0
:10005000B7010008B70100087F0D0008B7010008CC
:10006000B70100089B0D0008A10D0008B7010008AA
:10007000B7010008B7010008B7010008B701000880
:10008000A90C0008B50C0008B7010008B70100086A
:10009000B7010008B7010008B7010008A70D000864
:1000A000194D0008B7010008B7010008B7010008A2
:1000B000B7010008B7010008B7010008B701000840
:1000C000B7010008B7010008B7010008B701000830
:1000D000B7010008B7010008B7010008B701000820
:1000E000850D0008B7010008B7010008514D000850
:1000F000B7010008B7010008B7010008B701000800
:10010000B7010008B7010008B7010008B7010008EF
:10011000B7010008B7010008354D0008B701000815
:10012000C10C0008B7010008CD0C0008B701000899
:10013000B7010008B7010008B7010008B7010008BF
:10014000B7010008B7010008B7010008B7010008AF
:10015000B7010008B7010008B7010008B70100089F
:10016000B7010008B7010008B7010008B70100088F
:10017000B7010008B7010008B7010008000000003F
:10018000B7010008B7010008DFF80CD000F05EFBF3
:100190000048004721550008C01800200648804745
:1001A00006480047FEE7FEE7FEE7FEE7FEE7FEE75C
:1001B000FEE7FEE7FEE7FEE7C54C00088901000800
:1001C0002DE9F05F0546002092469B46884606468C
:1001D000814640241BE0284641464746224600F01F
:1001E0007EFA53465A46C01A914110D3114618461A
:1001F000224600F065FA2D1A67EB01084F462246A9
:100200000120002100F05CFA17EB00094E41201E8E
:10021000A4F10104DFDC484631462A464346BDE8E6
:10022000F09FD2B201E000F8012B491EFBD27047CB
:100230000022F6E710B513460A4604461946FFF7B2
:10024000F0FF204610BD2DE9FE4F804681EA0300F5
:10025000C00F0C46009021F0004123F00045B8EBA0
:100260000200A94105D24046214690461C460B4655
:10027000024623F00040104347D0270DC7F30A0081
:10028000C3F30A510290401A019040286BDAC3F37D
:10029000130040F4801B0098924620B10023D2EB5B
:1002A000030A63EB0B0B01985946C0F1400250461C
:1002B00000F006FA06460D4650465946019A00F0EF
:1002C0001EFA10EB08006141002487EA115284EA0B
:1002D000E7731A4340D0009A62B3019A012A4FEAA9
:1002E000075215DC001B61EB02014FF0004202EAED
:1002F0000752CDE90042001C41F5801132462B46E1
:1003000000F055FA03B0BDE8F08F40462146F9E70A
:10031000001B61EB0201001C41F5801300185B41DA
:100320002018A2F5001747EB030140EAD570B61973
:100330006D4111E06D084FEA360645EAC0754FEA97
:100340000752001B61EB0201001C41F580114908B6
:100350004FEA30000019514132462B4603B0BDE848
:10036000F04F00F015BA0098012240000023D0EBB6
:10037000020263EBE073009821464FEAE074B8EBA9
:10038000000061EB0401E9E783F000435BE781F0E3
:10039000004158E72DE9FE4F81EA030404F00044D0
:1003A00021F0004100944FF0000B23F0004350EA8D
:1003B00001045ED052EA03045BD0C3F30A54C1F3D4
:1003C0000A552C44A4F2F3340194A0FB0254C1F367
:1003D000130141F48011C3F3130343F4801301FBB1
:1003E000024400FB034E840A970A44EA815447EA18
:1003F0008357A4FB076802958D0A05FB07854FEA22
:10040000932C04FB0C542705029D4FEA065847EA3B
:100410001637B5EB08056EEB070C870E920E47EA10
:10042000811742EA8312A7FB0201B6EB0B0164EBD2
:1004300000042B0D43EA0C335E1844EB1C50DA46E3
:100440005146E7FB0201C5F313044FEA0B3343EABD
:1004500014534FEA0432019C43EA0603A4F10C044E
:100460000294009CCDE900B400F0A1F903B0BDE80E
:10047000F08F00200146F9E72DE9F04D81EA0304F1
:1004800004F0004B21F0004514464FF0000A23F021
:10049000004150EA050220D054EA01021DD0C5F304
:1004A0000A570246C5F31303C1F31300C1F30A56FA
:1004B00040F4801543F48013A7EB0608101BD646C2
:1004C00008F2FD3873EB050002D308F1010801E0E2
:1004D00092185B41B8F1000F03DA00200146BDE835
:1004E000F08D00204FF48011064684460EE0171B65
:1004F00073EB050705D3121B63EB050306434CEAB8
:10050000010C49084FEA300092185B4150EA01079C
:10051000EDD152EA030012D082EA040083EA050119
:10052000084305D0101BAB4106D20122002306E090
:1005300000224FF0004302E06FF0010253101AEB6B
:1005400006004CEB085110EB0A0041EB0B01BDE833
:10055000F04D00F01DB90EB5C10F80EAE0700844FF
:10056000CA07002140F233438DE80E000A460B46CD
:1005700000F01DF903B000BD0EB540F23341029109
:100580000021CDE900110A460B4600F010F903B036
:1005900000BD70B5C1F30A5201F000450024C1F35B
:1005A000130140F2FF3341F480119A4201DA002036
:1005B00070BD40F233439A42A2F2334203DC52420E
:1005C00000F08DF800E090402C43F1D0404270BD27
:1005D000C1F30A5210B5C1F3130140F2FF3341F4E5
:1005E00080119A4201DA002010BD40F233439A4252
:1005F000A2F2334203DC524200F071F810BD904089
:1006000010BD00F0004230F000400AD0C10D01F5ED
:100610006071C0F3160042EA0151C208400711435D
:10062000704700200146704730B5041E71F1000488
:1006300004DB4FF00044404264EB0101141E73F1EF
:10064000000405DB1C464FF00043524263EB0403F9
:100650008B4208BF824230BD30B5041E71F10004E8
:1006600004DB4FF00044404264EB0101141E73F1BF
:10067000000405DB1C464FF00043524263EB0403C9
:10068000994208BF904230BD01F0004330B421F0E0
:10069000004150EA010206D00A0DA2F56072C1F3D2
:1006A0001301002A02DC30BC00207047440F44EAEA
:1006B000C104C100E01830BC00EBC25000F031B8FA
:1006C000202A04DB203A00FA02F100207047914012
:1006D000C2F1200320FA03F3194390407047202A07
:1006E00004DB203A21FA02F00021704721FA02F3DC
:1006F000D040C2F120029140084319467047202A99
:1007000006DBCB17203A41FA02F043EAE07306E039
:1007100041FA02F3D040C2F1200291400843194649
:1007200070470029A8BF7047401C490008BF20F04F
:100730000100704710B4B0FA80FC00FA0CF050EAE7
:10074000010404BF10BC704749B1CCF1200421FA68
:1007500004F411FA0CF118BF012121430843A3EB63
:100760000C01CB1D4FEA00614FEA102042BF002070
:1007700010BC704700EBC35010440029A4BF10BC4C
:100780007047401C490008BF20F0010010BC7047B2
:1007900010B5141E73F1000408DA401C41F1000189
:1007A00092185B411A4301D120F0010010BD2DE9E0
:1007B000F04D92469B4611B1B1FA81F202E0B0FAD7
:1007C00080F220329046FFF77BFF04460F4640EA56
:1007D0000A0041EA0B0153465A46084313D011461A
:1007E00053EA010019D0C8F140025046FFF777FFE5
:1007F00005460E46504659464246FFF761FF0843FC
:1008000005D0012004E020463946BDE8F08D0020E7
:10081000054346EAE0762C4337430A986305E40A29
:10082000A0EB08000022FD0A44EA47540A3002D532
:1008300000200146E9E7010510196941DDE9084595
:1008400000196941BDE8F04DA2E70000064C074DD4
:1008500006E0E06840F0010394E807009847103490
:10086000AC42F6D3FFF794FC586900087869000899
:1008700070B58C1810F8015B15F0070301D110F862
:10088000013B2A1106D110F8012B03E010F8016B8F
:1008900001F8016B5B1EF9D12B0705D40023521E12
:1008A0000DD401F8013BFAE710F8013BCB1A921C7A
:1008B00003E013F8015B01F8015B521EF9D5A14278
:1008C000D8D3002070BD0000FFB50027164900975F
:1008D0000197029703974F80CF806C468F808A885C
:1008E000CB8854F8225030F813605B1C354444F830
:1008F0002250521C92B2CB808A80042AEFD34A88BD
:10090000521C92B24A80082AE8D3074ACF8012329A
:10091000C88854F82030DB1022F81030401C80B218
:10092000C8800428F4D3FFBD0000002010B50146A4
:10093000806B026C12F0500F05D0026CD20626D5E7
:1009400000F0E6FA10BD016C41F400710164016829
:100950008A6812F0405F17D1027EAAB9CA6A12F4FF
:10096000700F02D08A6852050ED44A6822F0200225
:100970004A60016C21F480710164016CC90403D4E4
:10098000016C41F00101016400F0C0FA10BD806B00
:10099000C26CBDE810400846104710B5806B40217E
:1009A0000164416C41F00401416400F0B1FA10BDF2
:1009B00010B5806B00F0ABFA10BD00000F4810B509
:1009C00000220F4B9FED0F0A0280018803EB810488
:1009D000491C89B284ED000A01800429F5D3028004
:1009E000064A1C32018802EB8103491C89B283ED5F
:1009F000000A01800229F5D310BD0000000000208C
:100A0000DC02002000000045464910B54A6822F487
:100A100040324A604A6843681A434A6001684A683B
:100A200022F480724A6001684A68036942EA03223C
:100A30004A6001684A6822F040724A6001684A6868
:100A400083681A434A6001688A6822F400628A60F7
:100A500001688A68C3681A438A60816A6FF07062AD
:100A6000D14201688A6822F070628A6001688A68EF
:100A70000CD0836A1A438A6001688A6822F0405267
:100A80008A6001688A68C36A1A4301E022F0405212
:100A90008A6001688A6822F002028A6001688A68B6
:100AA000037E42EA43028A6090F820100029016820
:100AB0004A680FD042F400624A6001684A6822F432
:100AC00060424A6001684A68174C436A04EB43334A
:100AD0001A4301E022F400624A600168CA6A22F403
:100AE0007002CA620168CA6A838B104C04EB03531C
:100AF0001A43CA6201688A6822F400728A60016837
:100B00008A6890F8303042EA43228A6001688A6835
:100B100022F480628A6001688A68406942EA802023
:100B2000886010BD0023014000E0FFFF0000F0FFDF
:100B30002DE9F0412248FFF7C7FE22490022224F4B
:100B40008A8401F1900401F1980300BFB1F92400F7
:100B500037F9105034F91060B54201DB24F8105019
:100B600033F91060B54201DC23F81050401C00B28C
:100B700088840428EADB8889401C00B28881B0F5AB
:100B8000167F1ADB0F4F8A812C378A8407F10805FC
:100B900040F6FF7CB1F9240034F8106027F81060AB
:100BA00033F8106025F8106024F8102023F810C0E6
:100BB000401C00B288840428ECDBBDE8F081000012
:100BC000EC0200202800002012000020FEE710B5F3
:100BD000846B204600F02DFB0120207110BD10B564
:100BE000846B204600F000FB0120207110BD10B581
:100BF000846B206940F004002061204600F01CFB5B
:100C00000120207110BD10B5846B206940F00400F4
:100C10002061204600F0EBFA0120207110BD10B5D4
:100C2000806B00F007FB10BD10B5806B00F0DDFAA3
:100C300010BD00000F4A10B500210F4B0128916232
:100C40000AD00E4830F8114004EB044423F8114058
:100C5000491C6429F6D30AE00848C83830F8114026
:100C600004EB044423F81140491C6429F6D3916233
:100C700010BD000028000020A80400202E680008F5
:100C8000074A0849B2FBF0F310B50C685B1EE3623B
:100C9000B2FBF0F0401EC86009680020486210BD39
:100CA000C0D40100C0080020014800F001BC0000D1
:100CB000D4060020014800F0FBBB000034070020F0
:100CC000014800F0F5BB000000060020014800F0DC
:100CD000EFBB00006006002001681823CAB2103A7A
:100CE000B2FBF3F2054B6FF30901032A9B5CC3656A
:100CF00000D9091D8165084670470000F6680008A4
:100D000010B5014600208B698A6A4FF0C07453B158
:100D1000B3F5005F15D072B1012A0CD0022A0AD0B7
:100D2000032A09D104E01AB1012A06D0022A03D10C
:100D3000C96AC90100D5012010BDC96AA142FAD013
:100D400010BD002AF7D0012AF2D0022AF3D0032ADC
:100D5000F3D010BD30B50468256825F480252560E2
:100D6000046863608368402B036803D0996000685F
:100D7000C26030BD9A600068C16030BD704701201C
:100D800000F058BD10B54FF4806000F053FDBDE891
:100D900010404FF4004000F04DBD082000F04ABD67
:100DA000102000F047BD10B54FF4807000F042FDF8
:100DB000BDE810404FF4007000F03CBD70470000EB
:100DC00078B50024009490F83C20012A19D0012223
:100DD00080F83C200A6807230568092A13D9EE68C1
:100DE0000A3A02EB420293409E43EE600B788A6817
:100DF0000A3B03EB43039A400368DD682A43DA6049
:100E000010E0022078BD2E6902EB420293409E431F
:100E10002E610B788A6803EB43039A4003681D69CF
:100E20002A431A614A681F23072A13D205686E6B8A
:100E3000521E02EB820293409E436E630B790A8836
:100E40005B1E92B203EB83039A4003685D6B2A43F7
:100E50005A6327E005680D2A12D22E6BD21F02EBCF
:100E6000820293409E432E630B790A88DB1F92B265
:100E700003EB83039A4003681D6B2A431A6311E056
:100E8000EE6A0D3A02EB820293409E43EE620B79CA
:100E90000A880D3B92B203EB83039A400368DD6A34
:100EA0002A43DA62164B0568144A9D4206D10D6842
:100EB000122D03D1556845F48005556005689D42A3
:100EC00018D10B68102B01D0112B13D1536843F4A8
:100ED00000035360096810290CD10A490A4A0968BD
:100EE000B1FBF2F101EB8101490000E0491E0091E4
:100EF0000029FBD180F83C40002078BD0023014050
:100F0000002001408C01002040420F0070477047D4
:100F1000704770B504004FF0000503D0206C002628
:100F200010B107E0012070BD204600F01DF8666496
:100F300084F83C60206CC00610D4206C20F48850EB
:100F400040F0020020642046FFF75EFD6664206CDE
:100F500020F0020040F00100206400E0012584F848
:100F60003C60284670BD00002DE9F04F87B0064672
:100F700014216846FFF75CF94848DFF81C811438F3
:100F8000D6F800C0002545490F230324444A07151D
:100F90004FF400694FF4005A4FF4807BC44547D1A9
:100FA000D1F800C04CF4807CC1F800C0096801F49D
:100FB00080710591016841F004010160016801F050
:100FC00004010591016841F001010160016801F02F
:100FD00001010591016841F0020101600068694664
:100FE00000F0020005908DE83800104600F02EFC5D
:100FF0000E208DE8310069462A4800F027FC0220C7
:101000008DE831006946284800F020FC284C27482C
:10101000E4E802054FF4403020C4A4E8A00E64E8E0
:101020000805234831E0B463A66307B0BDE8F08F3C
:10103000DFF88080C445F8D1D1F800C04CF4007CC2
:10104000C1F800C0096801F400710591016841F020
:10105000040101600068694600F0040005908DE815
:101060003800104600F0F2FB114C1048603430306C
:1010700001C44FF00070E4E802054FF44030A4E8EA
:10108000A00E64E808050A48603000F0E1FA002884
:10109000C9D0FFF793FEC6E7002001404438024064
:1010A00000080240000002400004024010640240B8
:1010B0000006002000210140F8B50E46002104463C
:1010C000009190F83C00012807D0012084F83C00F2
:1010D00020688368DB0702D011E00220F8BD836836
:1010E00043F0010383603748374B0068B0FBF3F0EF
:1010F00000EB400000E0401E00900028FBD120687B
:101100008368DB075CD0236C40F20165AB4343F49A
:10111000807323644068400505D5206C20F400509E
:1011200040F480502064206CC00404D5606C20F032
:101130000600606400E0616484F83C10A16B244800
:10114000224DC863A16B23480864A16B2248C86480
:1011500021686FF0220008602068416841F08061DA
:1011600041602068816841F4807181602168134684
:1011700032464C31A06B00F0D5FA68681749C006BA
:10118000206806D088421BD1816811F0405F13D0DF
:1011900016E08842F8D0124A904203D1D1F80423D5
:1011A000D206F1D00F4A90420AD1D1F8041301F0CF
:1011B0001F011029E8D303E0816841F0804181607C
:1011C0000020F8BD8C01002040420F0000230140A8
:1011D0002D090008B10900089B0900080020014002
:1011E000002101400022014070477047704770475E
:1011F00070B54379012B1AD0012646710223037181
:1012000005682C6840F6FE7393409C43D1E9003199
:101210000B43934023432B6001680B68C024944028
:10122000A3430B60067100214171084670BD022086
:1012300070BD704770477047704770B504460068CE
:10124000416B4FF0040589040ED52571216941F0E9
:1012500001012161E90241632068016821F48051A4
:1012600001602046FFF7E7FF2068416B890011D538
:101270002571216941F0020121614FF00051416364
:101280002068016821F0805101602046BDE870406F
:10129000FFF7ACBF70BD70B5040003D02079002506
:1012A00010B105E0012070BD6571204600F008F81E
:1012B00002202071256101202071002070BD0000F6
:1012C0002DE9F04F87B0064614216846FEF7B0FFBF
:1012D0003249306888425ED131480025016841F0CA
:1012E00000510160006800F0005005902C48103853
:1012F000016841F0010101600068694600F00100E9
:101300000590302000900320CDE90105254800F02C
:101310009DFA264C24484FF060674FF0400884E85F
:1013200081014FF400690015C4F81490C4E903501A
:1013300004F11801C0004FF4807A4FF4003B65625D
:1013400081E8010C204600F083F908B1FFF736FD73
:10135000B460A663154C14486034183084E88101E9
:101360000015C4F81490C4E9035004F11801C0003A
:10137000656281E8010C204600F06AF908B1FFF7C8
:101380001DFDF460002211463620A66300F03CFDEE
:10139000362000F02BFD07B0BDE8F08F0074004050
:1013A000403802400000024088600240D40600201D
:1013B0002DE9F04104460D46174661790022069852
:1013C000012920D00126667102212171F5B1D4F8DE
:1013D0000CC03149CCF83C10D4F80CC02F49CCF8E3
:1013E0004010D4F80CC02E49CCF84C102168D1F82C
:1013F00000C04CF0805CC1F800C090B3042834D029
:10140000082837D134E00220BDE8F081D4F808C0C4
:101410002449CCF83C10D4F808C02349CCF840103B
:10142000D4F808C02149CCF84C102168D1F800C08C
:101430004CF4805CC1F800C020B1042805D0082815
:1014400008D105E02268083204E022680C3201E08D
:10145000226810322068016841F400510160A068E0
:101460000EE0FFE72268143204E02268183201E03F
:1014700022681C322068016841F000510160E06878
:10148000394600F04FF920680168AE4031430160F1
:1014900000206071B8E70000DF0B0008290C00088D
:1014A000070C0008CF0B00081F0C0008EF0B00080A
:1014B0002DE9F84304464FF00009CDF80090634849
:1014C0004FF41651A56D0068B0FBF1F72E6894F843
:1014D0005C10082000FA01F131420FD021680A683F
:1014E00052070BD50A6822F004020A6094F85C10D7
:1014F0008840A860606D40F00100606594F85C1061
:101500004FF0010808FA01F0304208D0216849691B
:10151000090604D5A860606D40F00200606594F88B
:101520005C1004208840304208D02168096889078F
:1015300004D5A860606D40F00400606594F85C100C
:1015400010208840304218D021680968090714D556
:10155000A86020680168490304D50068000308D525
:10156000A16C07E00168C90503D4016821F00801F6
:101570000160216C09B12046884794F85C10202056
:101580008840304231D021680968C9062DD5A8604D
:1015900094F8350005282068016806D0490347D52E
:1015A000006800031DD4616C1CE021F0160101608D
:1015B0002068416921F080014161206C08B9A06C6C
:1015C00020B12068016821F00801016094F85C10E6
:1015D0003F208840A86084F8349084F83580216DDD
:1015E0001FE0E16B09B120468847606D00282BD0D1
:1015F000606DC00714D0052084F8350020680168AC
:1016000021F0010101600098401C0090B84203D80D
:1016100020680068C007F6D184F8349084F83580DB
:10162000E16C002910D001B02046BDE8F043084726
:101630000168C905D5D4016821F01001016084F862
:10164000349084F83580CCE7BDE8F8838C01002025
:101650002DE9F041044600F0E3F906465CB10025AF
:1016600084F83450022084F835002068016821F0A5
:10167000010101600DE00120BDE8F08100F0D0F92A
:10168000801B052805D920206065032084F83500DB
:10169000F2E720680068C007F0D12268116820488E
:1016A0000140D4E901031843D4E903363343184316
:1016B00063691843A3691843E3691843236A18430D
:1016C0000843616A042903D1D4E90B131943084381
:1016D000106020684069666A20F0070130460E43BA
:1016E000012704280CD1A06A0643E06A40B12046D5
:1016F000FFF706FB20B14020606584F83570BAE73B
:10170000206846612046FFF7E7FA94F85C203F2105
:1017100091408160656584F835700020ACE7000079
:101720003F8010F02DE9F0410446866D90F83400BA
:10173000002501280DD0012084F8340094F835707C
:101740000020012F07D084F8340002252846BDE888
:10175000F0810220FBE7022784F83570606520469F
:10176000FFF7F8FA94F85C103F208840B0602068DA
:10177000016841F0160101602068416941F0800173
:101780004161206C20B12068016841F008010160CE
:101790002068016841F001010160D7E770B5044697
:1017A00000F03EF90546601C02D00448007804446D
:1017B00000F036F9401BA042FAD370BD8001002032
:1017C0002DE9F0410126174C174D01280DD0174F78
:1017D000102817D0082813D11420FFF7DFFF0821A5
:1017E000384600F00BF9C0B119E01420FFF7D6FF1E
:1017F00001210F4800F002F908B9002020702E6086
:10180000BDE8F0811420FFF7C9FF1021384600F031
:10181000F5F800B92670102002E0022020700820A0
:101820002860EDE728000020143C01400010024031
:1018300000000240044910B50A68024202D0086064
:10184000FFF7BEFF10BD0000143C01402DE9F84F2A
:10185000DFF87CB100224FF001084FF0030A4FF08F
:101860000F090BF1040E00BF0B6808FA02F42340C5
:10187000A3426ED14D68022D01D0122D0ED1D50894
:1018800000EB850CDCF820505607F70E09FA07F636
:10189000B5430E69BE402E43CCF820600668550063
:1018A0000F790AFA05FC07F0030726EA0C06AF4099
:1018B000374307604E68012E05D0022E03D0112E4B
:1018C00001D0122E0ED18668CF6826EA0C06AF40F2
:1018D000374387604668A6430C79C4F300149440EC
:1018E00034434460C6688C6826EA0C06AC40344336
:1018F000C4604C68E40065D5364C256845F48045E5
:101900002560246822F0030504F480440094324CDE
:101910002E19D6F8084895072F0F09FA07F5AC439A
:101920002E4DA84201D1002524E02D4DA84201D121
:1019300001251FE02B4DA84201D102251AE02A4DB6
:10194000A84201D1032515E0284DA84202D1042563
:1019500010E037E0264DA84201D105250AE0254DCB
:10196000A84201D1062505E0234DA84201D1072553
:1019700000E00825BD402543C6F80858DBF80040C4
:101980005D464E689C43F60300D51C432C60DEF890
:10199000004075464E689C43B60300D51C432C603E
:1019A0000B4D08352C684E689C43F60200D51C434D
:1019B0002C60074D0C352C684E689C43B60200D550
:1019C0001C432C60521C102AFFF44EAFBDE8F88F68
:1019D000003C014044380240003001400000024019
:1019E0000004024000080240000C024000100240C7
:1019F0000014024000180240001C02400069084028
:101A000000D001207047426931EA020200D1090486
:101A1000816170470AB1816170470904FBE70000EA
:101A200001488068704700008001002070B5040004
:101A30001BD094F83D00002520B984F83C50204686
:101A400000F046F9242084F83D002068016821F068
:101A50000101016000F0A2FA4D4A6168914201D88B
:101A60004C4900E04C49884201D2012070BD4B49ED
:101A70002368B0FBF1F15E6826F03F060E435E601E
:101A80006368934206D94FF4967359434FF47A73BF
:101A9000B1FBF3F12368491C1E6A26F03F0631436F
:101AA00019626168914210D84900401EB0FBF1F202
:101AB000521CC2F30B02042A01D2042022E0B0FB24
:101AC000F1F0401CC0F30B001CE0A368F3B301EB82
:101AD000C10202EB0116421EB2FBF6F2521C42F4A6
:101AE0008042120549D093B301EBC10202EB011110
:101AF000401EB0FBF1F0401CC0F30B0040F48040EE
:101B000040F400402168CA694CF6FF739A431043C1
:101B1000C861D4E90701084321680A6822F0C002BD
:101B200010430860D4E9030101432068826848F249
:101B3000FF339A4311438160D4E9050108432168CA
:101B4000CA6822F0FF021043C86001E00EE016E010
:101B50002068016841F0010101602564202084F8BB
:101B60003D00256384F83E50002070BD01EB410626
:101B7000421EB2FBF6F2521CB3E70120C2E701EBB2
:101B80004101401EB0FBF1F0401CC0F30B00B7E771
:101B9000A086010080841E0000093D0040420F0025
:101BA0002DE9FF4F83B09A46DDE91197934604462D
:101BB000DDF84080FFF734FF054694F83D0020280B
:101BC0007FD11923012240492046009502F0EEF909
:101BD000002876D194F83C00012872D0012084F8C6
:101BE0003C0020680168C90703D1016841F0010188
:101BF00001602068016821F400610160212084F8FF
:101C00003D00402084F83E0000262664C4F824806D
:101C1000A4F82A90608D20852C48E062CDE90075FB
:101C200053465A462046049902F050F970B930E004
:101C30002A463946204602F038FA58B1206C04286A
:101C400004D12068016841F400710160012007B0EF
:101C5000BDE8F08F606A216800780861606A401C06
:101C60006062218D491E89B22185628D521E628576
:101C700022685369DB435B070BD469B100781061BC
:101C8000606A401C6062208D401E2085608D401E71
:101C90006085208D0028CBD12A463946204602F0A7
:101CA0005FF90028CAD154F83D0B016841F4007176
:101CB0000160202004F81E09E67766770020C6E759
:101CC000FFE70220C3E70000020010000000FFFF52
:101CD00010B586B0044614216846FEF7A9FA1349E8
:101CE0002068884220D11248016841F00201016059
:101CF0000068694600F002000590C02000901220A4
:101D000001900120029003200390042004900948D0
:101D1000FFF79CFD06481030016841F40011016096
:101D2000006800F40010059006B010BD005400409B
:101D300030380240000402400248816802781144B1
:101D400081607047800100200B4810B5016841F4A4
:101D500000710160016841F480610160016841F433
:101D600080710160032000F06FF8002000F006F899
:101D700000F024F8002010BD003C024070B50D4D6D
:101D800004464FF47A712878B1FBF0F00A490968EB
:101D9000B1FBF0F000F054FB48B9102C07D2002240
:101DA0002146501E00F030F800206C6070BD01200C
:101DB00070BD0000800100208C0100200A4808B599
:101DC000016841F480410160006800F480400090A7
:101DD0000548001F016841F080510160006800F073
:101DE0008050009008BD000044380240002809DB04
:101DF00000F01F02012191404009800000F1E02025
:101E0000C0F8001170470000F0B40E4B1B680C4680
:101E1000C3F30223C3F10705042D00D90425191DBE
:101E2000072901D2002300E0DB1E012606FA05F196
:101E3000491E214099409E40761E16403143F0BC19
:101E400003F072BA0CED00E0064900F007020868E2
:101E50004FF6FF03184040EA0220034A104308608F
:101E6000704700000CED00E00000FA052DE9F04796
:101E70000E46050065D0DFF81481D8F80000F7B2EF
:101E800000F00F00B04207D288F80070D8F80000C8
:101E900000F00F00B04254D128683D4C810712D5A4
:101EA000400703D5206840F4E05020602878000700
:101EB00003D5206840F4604020602068A96820F0C5
:101EC000F000084320602878C0072DD030496868AA
:101ED0000839012812D0022813D0032811D009682C
:101EE000890700292DDA216821F0030101432160CF
:101EF000FFF796FD814641F2883A0EE009688903B2
:101F0000EFE709688901ECE7FFF78AFDA0EB09011B
:101F1000514502D90320BDE8F0872068696800F0C8
:101F20000C00B0EB810FEFD1D8F80010404601F063
:101F30000F01B14207D90770006800F00F00B042EE
:101F400001D00120E7E72878400705D52068E96837
:101F500020F4E050084320602878000706D5206868
:101F6000296920F4604040EAC100206000F036F8A2
:101F70002168084AC1F30311515CC8400649086052
:101F80000020FFF7FBFE0020C5E70000003C0240F8
:101F900008380240FE6800088C010020044805490A
:101FA00000680968044AC1F38221515CC840704747
:101FB0008C010020083802400E69000804480549D9
:101FC00000680968044AC1F34231515CC840704757
:101FD0008C010020083802400E690008154810B531
:101FE000006810F00C02144813D04110042A0FD0DE
:101FF000082A0ED10F4C241F2268236802F03F02EA
:102000005B0207D52068C0F38810A0FB010106E041
:10201000084610BD2168C1F38811A1FB000100230F
:10202000FEF7CEF82168C1F30141491C4900B0FB1D
:10203000F1F010BD083802400024F4002DE9F84FFB
:10204000050076D02878DFF8F8B2BE4CC00749D03A
:10205000DBF800105846C1F38101012908D000685F
:10206000C0F3810002280AD1201D0068400206D575
:102070002068800336D568680028E2D032E06868BE
:10208000B0F5803F10D0B0F5A02F206810D020F41C
:1020900080302060206820F4802020606868A0B133
:1020A000FFF7BEFC06460CE0206840F48030F4E701
:1020B00040F480202060F7E7FFF7B2FC801B642823
:1020C00073D820688003F7D50CE0FFF7A9FC06461B
:1020D00005E000BFFFF7A4FC801B6428F0D820684F
:1020E0008003F7D42878DFF8608280074FF000097A
:1020F0003ED5DBF80010584611F00C0F09D00068EF
:10210000C0F3810002280BD18D48001F00684002F7
:1021100006D42068800715D5E868012809D111E0A8
:10212000E868B8B10120C8F80000FFF779FC06465E
:1021300005E002E1FFF774FC801B0228C0D820688C
:102140008007F7D52068296920F0F80040EAC1002F
:1021500020600DE0C8F80090FFF762FC064604E03E
:10216000FFF75EFC801B02281FD820688007F7D489
:102170002878000722D5724E744869696C3671B1AF
:1021800001210160FFF74CFC074604E0FFF748FC23
:10219000C01B022809D830688007F7D50EE0C0F8C8
:1021A0000090FFF73DFC074605E083E0FFF738FCB1
:1021B000C01B02287ED830688007F7D428784007F3
:1021C00068D5DFF87CA100270AF1380ADAF80000A8
:1021D000C0000BD4DAF8001041F08051CAF80010AA
:1021E000DAF80000012700F080500090584E306867
:1021F000C00510D4306840F480703060FFF710FCE8
:10220000009005E0FFF70CFC0099401A022851D815
:102210003068C005F6D54A4EA868683601280FD048
:102220000528306810D020F001003060306820F0C0
:1022300004003060A868B8B1FFF7F2FB00900FE02F
:10224000306840F00100F4E740F004003060F7E748
:10225000FFF7E6FB0099411A41F28830814264D8C9
:1022600030688007F4D50EE0FFF7DAFB009007E056
:10227000FFF7D6FB0099411A41F28830814254D8C9
:1022800030688007F4D42FB1DAF8001021F08051C3
:10229000CAF80010A869C0B3DBF80010C1F38101CF
:1022A00002294AD00228484607D0C8F86000FFF744
:1022B000B7FB00E039E005463AE04746C8F8600061
:1022C000FFF7AEFB064604E0FFF7AAFB801B0228DF
:1022D0002BD820688001F7D4D5E907010843A96A03
:1022E0001C4A490802EB01416A6A41EA821108432B
:1022F00095F82C1040EA01611148001F016001208F
:102300003866FFF78DFB054605E014E0FFF788FB14
:10231000401B022809D820688001F7D50BE000BFD8
:10232000FFF77EFB401B022802D90320BDE8F88F8F
:1023300020688001F4D40020F8E70120F6E70000CF
:10234000083802400038024000004742800E4742F1
:10235000007000400000FFFF70B5040005D00025AC
:10236000A56294F8510010B106E0012070BD84F818
:102370005050204600F030F8022084F851002068C8
:10238000016821F040010160D4E901010843D4E96A
:1023900003121143084361690843218B01F4007162
:1023A0000843E1690843216A0843A16A0843216898
:1023B0000860A069042101EA1040616A08432168AD
:1023C00048602068C16921F40061C1616565012030
:1023D00084F85100002070BD10B586B00446142169
:1023E0006846FDF725FF13492068884220D112482E
:1023F0000021026842F480520260006800F48050BC
:1024000005900D481438026842F00202026000682C
:1024100000F002000590382000900220CDE9010173
:10242000032003900520049069460448FFF70EFA44
:1024300006B010BD003001404438024000040240A4
:1024400010B5401EB0F1807F01D3012010BD4FF0C8
:10245000E02460610F21601702F066FF0020A06198
:1024600007202061002010BD7047704710B590F81C
:102470003C20012A22D0012280F83C20CA688C68C6
:1024800022F4407222434C6822F4806222430C689A
:1024900022F4006222430C6922F4805222434C69E8
:1024A00022F400522243C969002322F480420A43E5
:1024B00001684A6480F83C30002010BD022010BD45
:1024C00070B590F83C20012A19D0012400F83C4F47
:1024D0000222427050F83C3C5A689D6822F0700617
:1024E0000A684968324325F0800529435A6050F84C
:1024F0003C2C9160447000210170084670BD0220A0
:1025000070BD10B5040003D094F83D0010B107E091
:10251000012010BD002084F83C00204600F00CF89B
:10252000022084F83D00211D206802F017FC0120E4
:1025300084F83D00002010BD08B51F4A01681F48FF
:1025400091420ED1016841F0100101600068002243
:1025500000F01000009011463620FFF755FC3620A1
:1025600024E0174A914210D11448001D016841F43B
:10257000803101600068002200F480300090042166
:102580001820FFF741FC182010E00E4A914211D1AB
:10259000016841F0400101600068002200F0400045
:1025A000009005212B20FFF72FFC2B20BDE80840D1
:1025B000FFF71CBC08BD000000100040403802407E
:1025C0000040014000180040022180F83D100168E1
:1025D0008A6802F00702062A03D00A6842F0010264
:1025E0000A60012180F83D10002070470168CA6828
:1025F00042F00102CA600068816801F00701062903
:1026000003D0016841F0010101600020704770B5FE
:10261000044690F83C00012817D0012584F83C506E
:10262000022084F83D002068826822F0770222F4BC
:102630007F4282600868502830D00DDC20284DD0C1
:1026400005DC98B310283BD148E0022070BD30284B
:1026500044D0402834D139E0602828D0702806D0F2
:10266000B0F5805F2CD0B0F5005F29D10AE0CB68CF
:10267000D1E90121206802F0E2FB2068816841F085
:10268000770109E0CB68D1E90121206802F0D7FB8E
:102690002068816841F48041816011E0CA6849681E
:1026A000206802F0A1FC5021206807E016E0CA680B
:1026B0004968206802F0A9FC6021206802F0C9FB8B
:1026C00084F83D50002084F83C0070BDCA68496819
:1026D000206802F089FC40212068EFE7226801466B
:1026E0001046EBE7704770B50446006801694FF08B
:1026F0000005C943890715D4C168C943890711D4A6
:10270000E91E01610120207720688069800720464A
:1027100002D0FFF7E7FF04E000F0DAF8204600F00F
:1027200085F9257720680169C943490717D4C1682D
:10273000C943490713D46FF00401016102202077D7
:102740002068806910F4407F204602D0FFF7CAFF5E
:1027500004E000F0BDF8204600F068F92577206815
:102760000169C943090716D4C168C943090712D4CE
:102770006FF008010161042020772068C06980079C
:10278000204602D0FFF7AEFF04E000F0A1F820469B
:1027900000F04CF9257720680169C943C90617D4B0
:1027A000C168C943C90613D46FF010010161082044
:1027B00020772068C06910F4407F204602D0FFF7E0
:1027C00091FF04E000F084F8204600F02FF925770F
:1027D00020680169C943C90708D1C168C943C9074D
:1027E00004D1891E0161204600F044F92068016986
:1027F000C943090609D4C168C943090605D46FF065
:10280000800101612046FFF72FFE20680169C9435E
:10281000490609D4C168C943490605D46FF040018F
:102820000161204601F0D2FA20680169C943890696
:102830000BD4C168C943890607D46FF02001016138
:102840002046BDE87040FFF710BE70BD30B587B0C0
:10285000044614216846FDF7EBFC2468184D00215E
:10286000184802220123AC4211D1046844F010043C
:1028700004600068049300F0100005901002CDE998
:1028800000020320CDE9021069460F4813E0B4F1BD
:10289000804F12D1046844F001040460006800F025
:1028A000010005904FF400400090CDE90121CDE9F1
:1028B000031369460548FEF7C9FF07B030BD0000A5
:1028C0000000014030380240001002400000024089
:1028D000704770B5044690F83C000D4601280DD0B5
:1028E000012684F83C60022084F83D0042B1042AAD
:1028F00018D0082A2AD00C2A4DD139E0022070BD08
:10290000206802F0AFFA2068816941F00801816116
:102910002068816921F004018161206881692A6948
:10292000114311E0206802F0CDFA2068816941F47A
:10293000006181612068816921F480618161206882
:1029400081692A6941EA0221816124E0206802F05C
:10295000EFFA2068C16941F00801C1612068C169CE
:1029600021F00401C1612068C1692A69114311E0A5
:10297000206802F011FB2068C16941F40061C16167
:102980002068C16921F48061C1612068C1692A6938
:1029900041EA0221C16184F83D60002084F83C00D6
:1029A00070BD10B5040003D094F83D0010B107E0ED
:1029B000012010BD002084F83C00204600F00CF8F7
:1029C000022084F83D00211D206802F0C7F9012093
:1029D00084F83D00002010BD08B500681149884208
:1029E00012D11148016841F0010101600068002224
:1029F00000F00100009004211820FFF705FABDE85F
:102A000008401820FFF7F2B9B0F1804F09D106480D
:102A1000001F016841F001010160006800F0010041
:102A2000009008BD0000014044380240704700009B
:102A300010B504460068012202F0F4F90B49206841
:102A4000884202D00A49884203D1416C41F40041D6
:102A500041642068816801F00701062903D00168FC
:102A600041F001010160002010BD000000000140A4
:102A7000000401402DE9F05FFD4907462DED108B64
:102A800000680968FB4D9FEDFCCB9FEDFDDB9FEDE2
:102A9000FEABA5F12C0488423CD1FEF749F8218C0D
:102AA00004F134009FEDFA9B29880288891A09B243
:102AB000E1816A884088101A06B22682881BFDF7D9
:102AC0004AFD41EC180B3046FDF745FD53EC1C2B3D
:102AD000FDF760FC53EC1A2BFDF75CFC53EC182B54
:102AE000FDF7CAFC94ED120B41EC180B53EC1D2BB7
:102AF00051EC100BFDF74EFC53EC182BFDF7A3FB2C
:102B000053EC1A2BFDF746FC53EC192BFDF7B4FCE4
:102B1000C4E91201E0493868096888427ED120780A
:102B2000DE4FA1469FEDDEFBDFF87C839FEDDFBB30
:102B3000DFF880A3B3EE049A9FEDDF8BA8F5A074B5
:102B40004FF0000B30B19FEDDEEB012867D002287B
:102B50001DD1FDE3DC49012089F8010009684E46DA
:102B6000C1F834B0002280215046FEF753FF4FF4E5
:102B70007A70FEF785F8308C30B1012808D0022831
:102B80002ED00328E4D154E00120FEF753F8FDE3F2
:102B900096ED120B53EC182B344651EC100BFDF74D
:102BA000F9FB94ED100B41EC190B53EC182B51EC85
:102BB000100BFDF7EFFB53EC192BFDF744FBC4E9B9
:102BC0001001A988F8880122091A490401F1C87185
:102BD00009146182E082D1035046FEF71BFFD6E75D
:102BE000A888B7F906503446401B400400F1C8706D
:102BF0000014B08235832846FDF7ADFC41EC180B7C
:102C0000B4F91600401BFDF7A6FC53EC1F2BFDF793
:102C1000C1FB53EC182BFDF72FFC01E0E1E358E07A
:102C2000C4E9160100224FF400415046FEF7F2FEBF
:102C3000AAE7B5F90400B7F90610401A400000F5FC
:102C4000C870FDF788FC53EC182BFDF7A3FB41EC93
:102C50001C0BB8F90600FDF77EFC53EC182BFDF7B2
:102C600099FB53EC1C2BFDF7EEFAFDF792FC00B23A
:102C7000A8F8060096ED108B054653EC1A2B51EC84
:102C8000180BFDF7E0FA41EC100B51EC180B53EC6C
:102C9000102BFDF7F1FB41EC180B284686ED1A8B43
:102CA000FDF759FC53EC1B2BFDF7E6FB53EC182BFF
:102CB000FDF7E2FBFDF7E8FC00EE100A02F044FB32
:102CC00020EE090A10EE100AFDF79BFCC4E906018C
:102CD0005DE7012089F80200C1034E4600225046FC
:102CE000FEF798FE0120FDF7A5FF308C0E2859D283
:102CF000DFE800F0075858175997FAF9F8F7F6F592
:102D0000F4BD71490A68C2F824B00968C1F834B04A
:102D100079887183002280215046FEF77BFE3220A5
:102D20003EE0B5F90400B6F91C103546401A4000E3
:102D3000FDF711FC9FED651B53EC112BFDF72AFBF2
:102D400041EC1E0BB8F90000FDF705FC9FED611B7F
:102D500053EC112BFDF71EFB53EC1E2BFDF773FA02
:102D6000FDF717FC00B2A8F80000FDF7F4FB53ECE8
:102D70001B2BFDF781FB95ED1A1B53EC112BFDF777
:102D80007BFBFDF781FC00EE100A02F0DDFA20EE7D
:102D9000090A10EE100AFDF734FCC4E900016420B2
:102DA000FDF76EFFBDE2B5F90400B7F90610401A51
:102DB000400000F5C870FDF7CEFB53EC182BFDF773
:102DC000E9FA41EC1E0BB8F90200FDF7C4FB53EC25
:102DD000182BFDF7DFFA53EC1E2BFDF734FAFDF745
:102DE000D8FB00B2A8F80200FDF7B5FB53EC1B2B93
:102DF000FDF742FB96ED1A1B53EC112BFDF73CFB44
:102E0000FDF742FC00EE100A02F09EFA20EE090ADD
:102E100010EE100AFDF7F5FBC4E902014FF4FA7059
:102E2000BEE7B5F90400B7F90610401A400000F5F6
:102E3000C870FDF790FB53EC182BFDF7ABFA41EC93
:102E40001E0BB8F90400FDF786FB53EC182BFDF7B9
:102E5000A1FA53EC1E2BFDF7F6F9FDF79AFB00B231
:102E6000A8F80400FDF777FB53EC1B2B3DE014E2C0
:102E70000009002054000020333333333333D33F71
:102E8000666666666666E63F000000000000244055
:102E900066666666666626404009002012000020CD
:102EA0000000000000409F4080040020A4703D0A04
:102EB000D7234B4000100240000000000000E03F1C
:102EC00016B120C14779534040080020000000009F
:102ED0000000D03F000000000000E83FA0E160E1FA
:102EE00020E1E0E0A0E05EE018E0FDF7C5FA96ED35
:102EF0001A1B53EC112BFDF7BFFAFDF7C5FB00EED3
:102F0000100A02F021FA20EE090A10EE100AFDF76D
:102F100078FBC4E904014FF47A7041E7B5F9040085
:102F2000B7F90610401A400000F5C870FDF713FB12
:102F300053EC182BFDF72EFA41EC1E0BB8F90600E6
:102F4000FDF709FB53EC182BFDF724FA53EC1E2B6D
:102F5000FDF779F9FDF71DFB00B2A8F80600FDF7B3
:102F6000FAFA53EC1B2BFDF787FA96ED1A1B354640
:102F700053EC112BFDF780FAFDF786FB00EE100AEB
:102F800002F0E2F920EE090A10EE100AFDF739FB13
:102F9000C4E90601F888A883012280215046FEF783
:102FA00039FD0A203DE0B5F90400B7F90610401AD2
:102FB000400000F5C870FDF7CEFA53EC182BFDF772
:102FC000E9F941EC1B0BB8F90800FDF7C4FA53EC22
:102FD000182BFDF7DFF953EC1B2BFDF734F9FDF748
:102FE000D8FA00B2A8F80800FDF7B5FA9FEDFD1B6E
:102FF00053EC112BFDF740FA96ED1A1B53EC112BF5
:10300000FDF73AFAFDF740FB00EE100A02F09CF9DA
:1030100020EE090A10EE100AFDF7F3FAC4E90801E0
:10302000142001F0EDFD7CE1B5F90400B7F90610BC
:10303000401A400000F5C870FDF78DFA53EC182BCC
:10304000FDF7A8F941EC1B0BB8F90A00FDF783FA6C
:1030500053EC182BFDF79EF953EC1B2BFDF7F3F8FF
:10306000FDF797FA00B2A8F80A00FDF774FA9FED91
:10307000DF1B53EC112BFDF7FFF996ED1A1B53ECF8
:10308000112BFDF7F9F9FDF7FFFA00EE100A02F037
:103090005BF920EE090A10EE100AFDF7B2FAC4E956
:1030A0000A012820BDE7B5F90400B7F90610401A57
:1030B000400000F5C870FDF74EFA53EC182BFDF7F1
:1030C00069F941EC1B0BB8F90C00FDF744FA53EC1D
:1030D000182BFDF75FF953EC1B2BFDF7B4F8FDF748
:1030E00058FA00B2A8F80C00FDF735FA9FEDC11BA5
:1030F00053EC112BFDF7C0F996ED1A1B53EC112B75
:10310000FDF7BAF9FDF7C0FA00EE100A02F01CF95B
:1031100020EE090A10EE100AFDF773FAC4E90C015B
:103120003C207EE7B5F90400B7F90610401A4000CC
:1031300000F5C870FDF70FFA53EC182BFDF72AF9CC
:1031400041EC1B0BB8F90E00FDF705FA53EC182BF8
:10315000FDF720F953EC1B2BFDF775F8FDF719FA75
:1031600000B2A8F80E00FDF7F6F99FEDA41B53EC92
:10317000112BFDF781F996ED1A1B53EC112BFDF77E
:103180007BF9FDF781FA00EE100A02F0DDF820EE7F
:10319000090A10EE100AFDF734FAC4E90E016420A2
:1031A0003FE7B5F90400B7F90610401A400000F5F2
:1031B000C870FDF7D0F953EC182BFDF7EBF841EC94
:1031C0001B0BB8F91000FDF7C6F953EC182BFDF7EF
:1031D000E1F853EC1B2BFDF736F8FDF7DAF900B2F6
:1031E000A8F81000FDF7B7F99FED861B53EC112BE3
:1031F000FDF742F996ED1A1B53EC112BFDF73CF944
:10320000FDF742FA00EE100A02F09EF820EE090ADD
:1032100010EE100AFDF7F5F9C4E91001962000E759
:10322000B5F90400B7F90610401A400000F5C8705F
:10323000FDF791F953EC182BFDF7ACF841EC1B0BA3
:10324000B8F91200FDF787F953EC182BFDF7A2F837
:1032500053EC1B2BFCF7F7FFFDF79BF900B2A8F826
:103260001200FDF778F953EC1E2BFDF705F996EDEA
:103270001A1B53EC112BFDF7FFF8FDF705FA00EED2
:10328000100A02F061F820EE090A10EE100AFDF7AC
:10329000B8F9C4E91201C820C3E6B5F90400B7F9CA
:1032A0000610401A400000F5C870FDF754F953ECC1
:1032B0001C2BFDF76FF841EC1B0BB8F91400FDF760
:1032C0004AF953EC1D2BFDF765F853EC1B2BFCF76B
:1032D000BAFFFDF75EF900B2A8F81400FDF73BF95C
:1032E00053EC1E2BFDF7C8F896ED1A1B53EC112B6F
:1032F000FDF7C2F8FDF7C8F900EE100A02F024F855
:1033000020EE090A10EE100AFDF77BF9C4E914015A
:103310003E480068C0F834B0002280215046FEF7D5
:1033200079FB94ED081B94ED060B53EC112B51EC3B
:10333000100BFCF788FF53EC182BFDF72BF841EC32
:10334000100B9FED331B86ED1C0B53EC112B00E093
:10335000A7E0FDF719F8304D05F18007C5E9000138
:103360000320708480B204EBC00095ED001B90ED4B
:10337000000B53EC112B51EC100BFDF76DF9708C19
:1033800004EBC00191ED000B0FD800E0FEE307EB6A
:10339000C00185ED080B91ED000B401C80B285ED5E
:1033A0000C0B70840B28DDD907E007EBC00085ED1E
:1033B0000A0B90ED000B85ED0E0B95ED000B53EC19
:1033C0001A2B85ED120B95ED100B51EC100BFDF740
:1033D0002BF903D89FED110B85ED100B95ED080B24
:1033E00020E0FDE3441D059630915040C2A90156EE
:1033F00084724A402D328D3D439E4C405C4347F1E0
:1034000054C44F4008218410420853404008002013
:103410000000000000000840A8000020000000009C
:103420000000494095ED0ABB53EC102B51EC1B0BEF
:10343000FCF7AAFF95ED0C0B95ED0EAB41EC180BCC
:1034400053EC102B51EC1A0BFCF79EFF95ED120B71
:1034500041EC190B53EC102B51EC1B0BFCF794FFB8
:1034600053EC192BFCF796FF53EC182BFDF704F8DF
:1034700053EC1A2BFCF78BFF53EC1C2BFCF78AFF49
:1034800095ED100B41EC180B53EC1D2B51EC100B70
:10349000FCF780FF53EC182BFCF7D5FEC5E91001B3
:1034A00074E399F802100129FAD199F80100012872
:1034B000F6D1FDF7BFFB4FF4004600223146FD4830
:1034C000FEF7A8FAB9F82000DFF8ECA30F2811D214
:1034D000DFE800F008113661CBFDFCFBFAF9F8F7E4
:1034E000F6F5F40000228021F248FEF793FA01205D
:1034F000FDF7A0FB92E399ED120B53EC182B4C4611
:1035000051EC100BFCF746FF94ED140B41EC190B3A
:1035100053EC182B51EC100BFCF73CFF53EC192B20
:10352000FCF791FEC4E91401A988F888091A490436
:1035300001F1C87109146182E082012231466AE317
:10354000A888B7F906504C46401B400400F1C870EB
:103550000014A9F81400A9F818502846FCF7FBFF3E
:1035600041EC190BB4F91600401BFCF7F4FF53ECC7
:103570001F2BFCF70FFF53EC192BFCF77DFFC4E961
:10358000180100223146CB48FEF744FA0120FDF72E
:1035900051FB322066E0B5F90410B9F91C004D4624
:1035A000081A4000FCF7D7FF9FEDC41B53EC112B0A
:1035B000FCF7F0FE41EC1E0BB8F90000FCF7CBFF66
:1035C0009FEDC01B53EC112BFCF7E4FE53EC1E2BBC
:1035D000FCF739FEFCF7DDFF00B2A8F80000FCF7AD
:1035E000BAFF53EC1B2BFCF747FF95ED1A1B53EC6E
:1035F000112BFCF741FFFDF747F800EE100A01F030
:10360000A3FE20EE090A10EE100AFCF7FAFF41ECC7
:10361000190B56468AED009B94ED000B9FEDAB1BFA
:1036200051EC100B53EC112BFCF70DFE53EC192B46
:10363000FCF7FAFF01D80120A87294ED000B9FED72
:10364000A51B51EC100B53EC112BFCF7FCFD96ED78
:10365000001B53EC112BFCF7FFFF01D885F80AB0D3
:103660004FF47A70FDF70CFBD8E2B5F90410B7F906
:103670000600081A400000F5C870FCF76CFF53EC18
:10368000182BFCF787FE41EC1E0BB8F90600FCF77F
:1036900062FF53EC182BFCF77DFE53EC1E2BFCF75E
:1036A000D2FDFCF776FF06B2A8F8066099ED14EBA0
:1036B00053EC1A2B4D4651EC1E0B09E016E2D8E1F3
:1036C00098E158E118E1B5E075E05AE04DE03FE0DF
:1036D000FCF7B9FD41EC100B51EC1E0B53EC102B19
:1036E000FCF7CAFE41EC1E0B304685ED1AEBFCF7E9
:1036F00032FF53EC1B2BFCF7BFFE53EC1E2BFCF7E9
:10370000BBFEFCF7C1FF00EE100A01F01DFE20EE2B
:10371000090A10EE100AFCF774FF41EC190B8AED50
:10372000069BF888E88394ED060B9FED6C1B51EC2B
:10373000100B53EC112BFCF72DFE53EC192BFCF75F
:103740008BFF02D885F807B068E20120E87165E2D6
:10375000012280215748FEF75DF962490A68C2F8E4
:1037600024B00968C1F834B058E25E484FF448719B
:103770000268D162C160026851630068C0F824B079
:103780004CE2584859460268C2F824B00068C0F8B4
:1037900034B0B7F902204846A9F81A20AA2A01DD58
:1037A00001234372A82A01DA89F809105FF00A00A0
:1037B00001F026FA32E2B5F90400B7F90610401A12
:1037C000400000F5C870FCF7C6FE53EC182BFCF760
:1037D000E1FD41EC1B0BB8F90800FCF7BCFE53EC13
:1037E000182BFCF7D7FD53EC1B2BFCF72CFDFCF73B
:1037F000D0FE00B2A8F80800FCF7ADFE9FED3A1B22
:1038000053EC112BFCF738FE99ED1A1B53EC112BDE
:10381000FCF732FEFCF738FF00EE100A01F094FDD1
:1038200020EE090A10EE100AFCF7EBFECAE90801C7
:103830001420BDE7B5F90410B7F90600081A4000D6
:1038400000F5C870FCF787FE53EC182BFCF7A2FDBF
:1038500041EC1B0BB8F90A00FCF77DFE53EC182B6A
:10386000FCF798FD53EC1B2BFCF7EDFCFCF791FEED
:1038700000B2A8F80A00FCF76EFE9FED1D1B53EC8A
:10388000112BFCF7F9FD99ED1A1B53EC112BFCF7EA
:10389000F3FDFCF7F9FE00EE100A01F055FD20EEF5
:1038A000090A10EE100AFCF7ACFECAE90A0128204A
:1038B0007EE7000000100240E003002066666666B6
:1038C0006666D63FCDCCCCCCCCCCE43F6666666693
:1038D00066660A4033333333333303400AD7A37069
:1038E0003D0AE73F40080020441D059630915040B6
:1038F000C2A9015684724A40B5F90410B7F906000E
:10390000081A400000F5C870FCF725FE53EC182B90
:10391000FCF740FD41EC1B0BB8F90C00FCF71BFE5B
:1039200053EC182BFCF736FD53EC1B2BFCF78BFCF0
:10393000FCF72FFE00B2A8F80C00FCF70CFE9FED80
:10394000FE1B53EC112BFCF797FD99ED1A1B53EC62
:10395000112BFCF791FDFCF797FE00EE100A01F029
:10396000F3FC20EE090A10EE100AFCF74AFECAE941
:103970000C013C201CE7B5F90410B7F90600081A41
:10398000400000F5C870FCF7E6FD53EC182BFCF77F
:1039900001FD41EC1B0BB8F90E00FCF7DCFD53EC0C
:1039A000182BFCF7F7FC53EC1B2BFCF74CFCFCF73B
:1039B000F0FD00B2A8F80E00FCF7CDFD9FEDE01B76
:1039C00053EC112BFCF758FD99ED1A1B53EC112BFE
:1039D000FCF752FDFCF758FE00EE100A01F0B4FCB3
:1039E00020EE090A10EE100AFCF70BFECAE90E01E0
:1039F0006420DDE6B5F90410B7F90600081A4000A6
:103A000000F5C870FCF7A7FD53EC182BFCF7C2FCBF
:103A100041EC1B0BB8F91000FCF79DFD53EC182B83
:103A2000FCF7B8FC53EC1B2BFCF70DFCFCF7B1FDCD
:103A300000B2A8F81000FCF78EFD9FEDC31B53ECFD
:103A4000112BFCF719FD99ED1A1B53EC112BFCF708
:103A500013FDFCF719FE00EE100A01F075FC20EED4
:103A6000090A10EE100AFCF7CCFDCAE910019620F5
:103A70009EE6B5F90410B7F90600081A400000F5F3
:103A8000C870FCF768FD53EC182BFCF783FC41EC85
:103A90001B0BB8F91200FCF75EFD53EC182BFCF77A
:103AA00079FC53EC1B2BFCF7CEFBFCF772FD00B24C
:103AB000A8F81200FCF74FFD53EC1E2BFCF7DCFCC2
:103AC00099ED1A1B53EC112BFCF7D6FCFCF7DCFD2F
:103AD00000EE100A01F038FC20EE090A10EE100A80
:103AE000FCF78FFDCAE91201C82061E6B5F90400B0
:103AF000B7F90610401A400000F5C870FCF72BFD1E
:103B000053EC182BFCF746FC41EC1B0BB8F91400E6
:103B1000FCF721FD53EC182BFCF73CFC53EC1B2B62
:103B2000FCF791FBFCF735FD00B2A8F81400FCF798
:103B300012FD9FED871B53EC112BFCF79DFC99EDBB
:103B40001A1B4E4653EC112BFCF796FCFCF79CFD20
:103B500000EE100A01F0F8FB20EE090A10EE100A40
:103B6000FCF74FFD41EC190B55468AED149B94ED83
:103B7000140B9FED791B51EC100B53EC112BFCF740
:103B800062FB53EC192BFCF767FD00E010E101D854
:103B90000220307294ED140B9FED711B51EC100B51
:103BA00053EC112BFCF7F0FB95ED141B53EC112B90
:103BB000FCF752FD01D80120307294ED140B9FEDFB
:103BC0006A1B51EC100B53EC112BFCF7DDFB95ED50
:103BD000140B53EC102BFCF727FD03D8022000E058
:103BE000F0E0307294ED140B9FED611B51EC100B63
:103BF00053EC112BFCF727FB95ED141B53EC112B09
:103C0000FCF712FD01D8032030725B490968C1F846
:103C100034B0002280215948FDF7FCFE9AED081BC4
:103C20009AED060B554653EC112B51EC100BFCF79B
:103C30000AFB53EC182BFCF7ADFB41EC100B4E4686
:103C400089ED1E0B9FED4E1B53EC112BFCF79CFBDB
:103C50004D4C04F18007C4E902010320708480B256
:103C600005EBC00094ED021B90ED000B53EC112B03
:103C700051EC100BFCF7F0FC708C05EBC00191EDE2
:103C8000000B0DD807EBC00184ED140B91ED000B78
:103C9000401C80B284ED180B70840E28DFD907E039
:103CA00007EBC00084ED160B90ED000B84ED1A0BB2
:103CB00094ED020B53EC1A2B84ED1E0B94ED1C0BB0
:103CC00051EC100BFCF7B0FC03D89FED300B84EDEA
:103CD0001C0B94ED140B94ED16BB53EC102B51EC14
:103CE0001B0BFCF751FB94ED180B94ED1AAB41EC58
:103CF000180B53EC102B51EC1A0BFCF745FB94ED11
:103D00001E0B41EC190B53EC102B51EC1B0BFCF769
:103D10003BFB53EC192BFCF73DFB53EC182BFCF74A
:103D2000ABFB53EC1A2BFCF732FB53EC1C2BFCF7D0
:103D300031FB41EC180B2DE02D328D3D439E4C4064
:103D40005C4347F154C44F4008218410420853405B
:103D50001DC165B8B88F55409A9999999999E93FCD
:103D600085EB51B81E85F33FEC51B81E85EBF13F52
:103D700048E17A14AE47F13F4008002000100240AD
:103D80000000000000000840A80000200000000023
:103D90000000494094ED1C0B53EC1D2B51EC100B13
:103DA000FCF7F8FA53EC182BFCF74DFAC4E91C01A8
:103DB000B9F82010491C89B2A9F820100F2901D3A5
:103DC000A9F820B0BDEC108BBDE8F09F704770B52E
:103DD000040004D094F83900002510B106E0012059
:103DE00070BD84F83850204600F022F8242084F872
:103DF00039002068C16821F40051C160204601F0FB
:103E000017F92068016921F4904101612068416936
:103E100021F02A0141612068C16841F40051C1606C
:103E2000E563202084F8390084F83A00002070BD52
:103E300010B586B0044614216846FCF7F9F9144918
:103E40002068884221D11348016841F010010160C7
:103E5000006800F0100005900E481438016841F029
:103E6000010101600068694600F0010005904FF40F
:103E7000C060009002200190012002900320039076
:103E8000072004900448FDF7E1FC06B010BD0000D7
:103E9000001001404438024000000240FEE7016883
:103EA0004A69D24352050FD46FF480624A610021FF
:103EB00040F8301F202242738173026942F00402ED
:103EC0000261017301207047002070472DE9F8431B
:103ED000044600680D46DDE90897016898461646D5
:103EE00041F4807101604B4600224FF001112046E1
:103EF000009700F05BF8E0B9216805F0FE0008616A
:103F00003B464A461549204600F084F888B92068A7
:103F10004169806900903A464946204600F0C5F85C
:103F200050B1206C042804D12068016841F400716C
:103F300001600120BDE8F883F5B2B8F1010F09D0A6
:103F40002168300A08613A464946204600F0ADF83B
:103F50000028E6D1206805610020EBE7020001009F
:103F600070B516460D4604460DE02046FFF797FF54
:103F700008B1012070BD681C05D0FDF751FD801B04
:103F8000A84207D835B120684069C0434007ECD447
:103F9000002070BD002044F8300F20216173A07311
:103FA000216941F0200121612073E2E72DE9F0470A
:103FB0001E4690460D460446C1F30747DDF82090A3
:103FC00008E0701C06D0FDF72BFDA0EB0900B04205
:103FD0000FD876B12068012F18D0806925EA00003B
:103FE0000004000C14D000214145EAD00020BDE8B7
:103FF000F087002044F8300F20216173A0732169FD
:1040000041F02001216120730120F0E74069E5E7DC
:104010000121E9E72DE9F0479A4691460E4604460C
:1040200000254FF02008C1F3074725E020684069CC
:10403000C043400514D42068016841F40071016058
:1040400021686FF480604861256384F83D8084F8BE
:104050003E50206C40F00400206484F83C501FE087
:10406000B9F1FF3F08D0FDF7DBFCA0EB0A014945A1
:104070000CD8B9F1000F09D02068012F13D0806946
:1040800026EA00000004000C0BD0CFE744F8305FB4
:1040900084F80D80A573206940F02000206125730D
:1040A0000120BDE8F0874069EAE770B516460D4685
:1040B00004460DE02046FFF7F2FE08B1012070BD76
:1040C000681C05D0FDF7ACFC801BA84207D835B1B1
:1040D00020684069C0430006ECD4002070BD002079
:1040E00044F8300F20216173A073216941F0200151
:1040F00021612073E2E700007FB500212448009190
:1041000001910291214A0391026001244FF480320F
:104110000461C0E90121047680F820101D4AC0E93D
:104120000A210425C561C16080F830404161FCF777
:10413000F0FE08B1FCF742FE009401946946144871
:104140000294FCF73DFE08B1FCF738FE0220009017
:10415000019069460E48FCF733FE08B1FCF72EFECD
:1041600003200090019069460948FCF729FE08B138
:10417000FCF724FE0A20CDE9000569460448FCF757
:104180001FFE002801D0FCF719FE7FBD0020014072
:10419000700500200100000F7FB500211B48009131
:1041A00001910291184A0391026001244FF4803278
:1041B0000461C0E90121047680F82010144AC0E9A6
:1041C0000A210225C561C16080F830404161FCF7D9
:1041D000A0FE08B1FCF7F2FD0A20CDE90004694613
:1041E0000A480294FCF7ECFD08B1FCF7E7FD0B2050
:1041F000CDE9000569460548FCF7E2FD002801D03D
:10420000FCF7DCFD7FBD000000210140B805002067
:104210000100000F1CB500201149009001900F48CB
:1042200008600846FDF737F808B1FCF7C7FD042021
:10423000009002200190002269460948FCF7D8FF4F
:1042400008B1FCF7BBFD102269460548FCF7D0FF1A
:10425000002801D0FCF7B2FD1CBD00000074004036
:10426000C0060020194808B5016841F480010160CA
:10427000016801F480010091016841F400110160BE
:104280000068002200F40010009011461020FDF795
:10429000BBFD1020FDF7AAFD002211461120FDF7FD
:1042A000B3FD1120FDF7A2FD002211463820FDF7D5
:1042B000ABFD3820FDF79AFD002211463A20FDF7AC
:1042C000A3FDBDE808403A20FDF790BD303802401C
:1042D0002DE9F04F87B014216846FBF7A9FF80480D
:1042E0000026016841F010010160016801F0100131
:1042F0000591016841F080010160016801F08001D1
:104300000591016841F004010160016801F00401B8
:104310000591016841F001010160016801F00101AE
:104320000591016841F002010160016801F002019C
:104330000591016841F0080101600068DFF8A4A15F
:1043400000F008000590002248F2A0015046FDF759
:1043500061FBDFF894910022C0214846FDF75AFB2B
:10436000012211466148FDF755FB00224FF4C84178
:104370005E48FDF74FFB00224FF490415C48FDF78B
:1043800049FB4FF4805B012259465948FDF742FB37
:10439000584F1820CDE90007012469460294504681
:1043A000FDF754FA202002254FF003088DE8310173
:1043B00069465046FDF74AFACDE900476946484646
:1043C0000295FDF743FAC0208DE851006946484642
:1043D0000396FDF73BFA01AA009482E85001694672
:1043E0004248FDF733FA80208DE831006946504697
:1043F0000395FDF72BFA4FF40048CDF80080CDE986
:104400000146694650460396FDF720FA4FF41050D6
:104410008DE83100694635480395FDF717FA4FF4EA
:1044200080494FF0110ACDE90256CDE9009A69465C
:104430002E48FDF70BFACDF80080CDE901746946EE
:104440002A48FDF703FA4FF4E060CDE9000769461A
:1044500002942748FDF7FAF9E0028DE83100694639
:1044600023480395FDF7F2F9CDE900B469462048E9
:10447000CDE90245FDF7EAF9CDF80090CDE901A6B6
:1044800069461B480396FDF7E1F900220721062043
:10449000FDF7BAFC0620FDF7A9FC00220721092040
:1044A000FDF7B2FC0920FDF7A1FC002207210A203C
:1044B000FDF7AAFC0A20FDF799FC0022072117202E
:1044C000FDF7A2FC1720FDF791FC00220721282010
:1044D000FDF79AFC2820FDF789FC07B0BDE8F08FB6
:1044E0003038024000100240000002400004024048
:1044F000000C0240000021100D4810B50B4901606E
:104500000C49416000214FF480428160C0E90312F0
:1045100041618161C1610162FDF788FA002803D021
:10452000BDE81040FCF74ABC10BD0000005400403C
:1045300094070020A08601000F4810B50D490160C6
:104540004FF48271416000218160C1604FF40072BC
:104550000161C0E90512C1610162416281620A2103
:10456000C162FDF7F9FE002803D0BDE81040FCF75A
:1045700025BC10BD00300140E80700201FB5002118
:1045800011480091019102910E4A0391026042F29A
:10459000CF02C0E9012140F2E732C0E90321816185
:1045A000FDF7AFFF08B1FCF709FC4FF48050009015
:1045B00069460548FEF72BF8002801D0FCF7FEFB02
:1045C0001FBD0000001800404009002010B592B047
:1045D00000240F941C2108A81094FBF729FE202129
:1045E0006846FBF725FE21481F49C0E90014532106
:1045F000C0E90241046144618461FEF7D2F908B167
:10460000FCF7DCFB10200F90802010900FA91748BA
:10461000FDF756FF08B1FCF7D1FB60200890292078
:10462000CDE909040B940C940D94002208A90F48BD
:104630000E94FEF74EF908B1FCF7C0FB00944FF45E
:104640000050CDE904400294019403946946074860
:104650000794FDF70BFF08B1FCF7B0FB0348FEF72A
:10466000F5F812B010BD0000000001404008002025
:1046700010B58AB0002407941C2168460894FBF703
:10468000D7FD15484FF08041C0E900145321C0E91F
:10469000024104618461FEF784F908B1FCF78EFBE6
:1046A000079407A90C480894FDF70AFF08B1FCF726
:1046B00085FB602000902920CDE901040022694695
:1046C00005480494FEF705F908B1FCF777FB0248AA
:1046D000FEF7BCF80AB010BD800800201CB500240D
:1046E0000F4800940D49019401600621C0E90114AE
:1046F0007721C16080218161FDF703FF08B1FCF7DC
:104700005DFB2020CDE9000469460548FDF7D8FE91
:10471000002801D0FCF752FB1CBD00000010004037
:10472000C00800201FB5002111480091019102919D
:104730000E4A039102605322C0E9012140F20112A6
:10474000C0E9032180218161FDF7DBFE08B1FCF7A0
:1047500035FB4FF48050009069460548FDF757FF40
:10476000002801D0FCF72AFB1FBD000000400140DB
:10477000000900200C4810B50A4901604FF4E131EE
:104780004160002181600C22C160C0E90412816196
:10479000C161FFF71CFB002803D0BDE81040FCF707
:1047A0000DBB10BD0010014080090020FEE77047DE
:1047B00070B50024002104F1B00000F01BFA0021C4
:1047C000084600F017FA0021102000F013FA002527
:1047D0000121002000F00EFA6D1CEDB2802DF7D300
:1047E000641CE4B2082CE5D370BD10B50021AE20E6
:1047F00000F000FA0021084600F0FCF9002110202A
:1048000000F0F8F90021402000F0F4F90021B02078
:1048100000F0F0F90021812000F0ECF900210846B9
:1048200000F0E8F90021A12000F0E4F90021A62021
:1048300000F0E0F90021A82000F0DCF900213F2081
:1048400000F0D8F90021C82000F0D4F90021D320CD
:1048500000F0D0F90021084600F0CCF90021D52065
:1048600000F0C8F90021802000F0C4F90021D82010
:1048700000F0C0F90021052000F0BCF90021D9208A
:1048800000F0B8F90021F12000F0B4F90021DA209D
:1048900000F0B0F90021122000F0ACF90021DB207B
:1048A00000F0A8F90021302000F0A4F900218D20AB
:1048B00000F0A0F90021142000F09CF90021BDE8CF
:1048C0001040AF2000F096B910B50A46044600210A
:1048D00002F1B00000F08EF9102040EA141000211F
:1048E00000F088F904F00F00BDE81040002100F04E
:1048F00081B900002DE9F0478146203A089800244C
:1049000010281F468846D5B248460AD0FFF7DCFF7C
:104910001C4905EB450001EB4005012F285D28D11E
:1049200026E0FFF7D1FF184E04EB0510012F305C95
:1049300000D1C043012100F05DF9641CE4B2082CF1
:10494000F2D308F10100C1B24846FFF7BDFF0024D1
:1049500004EB05103044012F007A00D1C04301213F
:1049600000F048F9641CE4B2082CF1D3BDE8F087EC
:10497000C043012100F03EF9641CE4B2062CCCD304
:10498000F4E700005C5E0008846000082DE9FF5F2A
:1049900098462DED020B174682462DED028B82B014
:1049A000B0EE408A159EF0EE608A4FF00009082EA6
:1049B0001DD0750851EC180BFBF70AFE1FFA80FB9F
:1049C00041460A2001F042FAFBF7D6FD53EC182BC2
:1049D000FBF7E0FCFBF7FCFD044641460A2001F032
:1049E00035FA0BFB104080B2002401902AE0062526
:1049F000E0E7381B401EC1B20A2001F027FABBFBDA
:104A0000F0F20A20B2FBF0F100FB1120B9F1000F27
:104A100005D1791E8C4202DA48B14FF001093030DD
:104A2000C2B205FB04A00096C0B2149B05E005FBD2
:104A300004A00096149BC0B220220799FFF75AFFEA
:104A4000641CE4B2BC42D4D305FB07A00096C0B2FC
:104A50002E22149B0799FFF74DFF7F1C05FB07A033
:104A6000C7B200242CE000BFA8EB0400401EC1B276
:104A70000A2001F0EBF90199B1FBF0F10A20B1FB3A
:104A8000F0F200FB1210B9F1000F06D1A8F10101FC
:104A90008C4202DA48B14FF001093030C2B205FB56
:104AA00004700096C0B2149B05E005FB04700096EC
:104AB000149BC0B230220799FFF71CFF641CE4B2BC
:104AC0004445D1D302B0BDEC028B06B0BDE8F09FE7
:104AD0002DE9FF4F81B01D46DDE90EB792468146B4
:104AE0004FF00008082F02D07E0800242AE0062696
:104AF000FBE7281B401EC1B20A2001F0A7F9BAFB50
:104B0000F0F00A21B0FBF1F201FB1200B8F1000F46
:104B100005D1691E8C4202DA48B14FF001083030ED
:104B2000C2B206FB0490C0B25B46009705E006FBEC
:104B30000490C0B25B46302200970299FFF7DAFE7C
:104B4000641CE4B2AC42D4D305B0BDE8F08F2DE9CB
:104B5000F84398461746894604460025089E10E00B
:104B60004346494620460096FFF7C4FE102E02D069
:104B7000082E02D003E0083400E0A41DE4B26D1C4E
:104B8000EDB27A5D002AEBD1BDE8F8832DE9F04162
:104B90000E4607460025FFF797FE154C0121605D84
:104BA00000F028F86D1CEDB2502DF7D3701CC1B287
:104BB0003846FFF789FE00256019012190F8500062
:104BC00000F018F86D1CEDB2502DF5D3B61CF1B203
:104BD0003846FFF779FE00256019012190F8A00002
:104BE00000F008F86D1CEDB2502DF5D3BDE8F08152
:104BF00074660008C0B209B100F084BB00F070BB5D
:104C00000B4A4FF0FF33B2FBF0F103EB51030949BC
:104C100010B50C686363B2FBF0F30C685B1EE362D3
:104C2000B2FBF0F0401EC86009680020486210BD69
:104C3000409002004008002070477047FDF77CB8A4
:104C400030B593B030216846FBF7F2FA14210CA876
:104C5000FBF7EEFA19480025016841F08051016028
:104C6000006800F0805011901548016841F48041BF
:104C700001600068022400F480401190012000903F
:104C8000000401908001CDE9064008AA0420A82173
:104C900082E813000B906846FDF7D0F90CA90F20AD
:104CA00081E831004FF4A0500F90E00210900521F0
:104CB0000CA8FDF7DBF813B030BD0000403802400F
:104CC000007000401048016841F4700101600F4815
:104CD000016841F0010101600C4A002108321160B5
:104CE00002680B4B1A400260031D0A4A1A600268F0
:104CF00022F48022026005480C3001600249580607
:104D0000803908607047000088ED00E000380240FC
:104D1000FFFFF6FE1030002410B50448FDF7E3FC59
:104D2000BDE810400248FDF7DEBC0000400800204E
:104D30000009002010B50448FCF77FFABDE81040D8
:104D40000248FDF7D0BC0000C0060020C0080020CB
:104D50000148FDF7C8BC000040090020F0B502681A
:104D6000254C264D264E274F274B4FF0804CA04216
:104D700009D0604507D0A84205D0B04203D0B84260
:104D800001D0984204D122F0700E4A6842EA0E0225
:104D9000A0421BD0604519D0A84217D0B04215D010
:104DA000B84213D0984211D0184DA8420ED0184DD9
:104DB000A8420BD0174DA84208D0174DA84205D0E5
:104DC000164DA84202D0164DA84203D122F44075D8
:104DD000CA682A434D6922F080022A4302608A6829
:104DE000C2620A688262A04201D0984201D1096978
:104DF000016301214161F0BD000001400004004059
:104E000000080040000C0040000401400040014048
:104E1000004401400048014000180040001C0040D0
:104E20000020004010B501F01F030121046A9940E1
:104E30008C430462016A9A401143016210BD10B5AF
:104E4000846842EA032224F47F440A4322438260B6
:104E500010BD826822F070020A4342F007018160AF
:104E600070470000F0B5026A22F001020262036A94
:104E700042688469124E24F073050C682C4323F0B9
:104E800002058B682B430D4DA84201D0B04205D1DD
:104E900023F00807CB683B4323F00403A84201D06A
:104EA000B04205D14D6922F4407215438A692A4304
:104EB00042608461496841630362F0BD00000140C3
:104EC00000040140F0B5026A22F010020262026A98
:104ED000436884690D6824F4E64444EA05248D6837
:104EE00022F0200242EA05120F4D104EA84201D0D6
:104EF000B04206D1CF6822F0800242EA071222F0C7
:104F00004002A84201D0B04207D14D6923F440636A
:104F100043EA85038D6943EA8503436084614968F8
:104F200081630262F0BD0000000001400004014006
:104F3000F0B5026A22F480720262026A4368C469B0
:104F400022F4007224F073050C68124E2C438D6815
:104F500042EA05220E4DA84201D0B04206D1CF68E8
:104F600022F4006242EA072222F48062A84201D0C1
:104F7000B04207D14D6923F4405343EA05138D69CC
:104F800043EA05134360C4614968C1630262F0BD2E
:104F9000000001400004014030B5026A22F4805252
:104FA0000262046A4268C3690D6823F4E64343EA77
:104FB00005238D6824F4005444EA0534084DA842C2
:104FC00002D0084DA84204D14D6922F4804242EA41
:104FD00085124260C36149680164046230BD00000B
:104FE000000001400004014010B5036A046A24F087
:104FF00001040462846924F0F00444EA021423F0FA
:105000000A020A438461026210BD10B5036A23F0EC
:10501000100303628369046A23F4704343EA023293
:1050200024F0A00343EA01118261016210BD000077
:105030002DE9F041044600680169E26821F440511D
:10504000114301612169A068E26908436169114364
:1050500022680843D16849F20C6399430143D16047
:1050600020684169A26921F4407111434161E269FC
:105070006425B2F5004F9748974922684FF03208EF
:105080003FD08A4201D082427CD1FCF797FF00EBEF
:10509000C00101EB001061688900B0FBF1F6FCF77C
:1050A0008DFF00EBC00101EB001061688900B0FBCF
:1050B000F1F0B0FBF5F06FF01801484306EB80010A
:1050C00008EB0110B0FBF5F000F0F006FCF776FFFE
:1050D00000EBC00101EB001061688900B0FBF1F04A
:1050E000B0FBF5F006EB0016FCF768FF00EBC00123
:1050F00001EB001061688900B0FBF1F7FCF75EFF7F
:10510000D2E08A4201D082423DD1FCF757FF00EB4A
:10511000C00101EB001061684900B0FBF1F0B0FB89
:10512000F5F00601FCF74AFF00EBC00101EB0010AF
:1051300061684900B0FBF1F7FCF740FF00EBC001EC
:1051400001EB001061684900B0FBF1F0B0FBF5F035
:105150006FF01801484307EB800108EBC100B0FB7A
:10516000F5F000F0F80006EB4006FCF727FF00EB37
:10517000C00101EB001061684900B0FBF1F7FCF7DA
:105180001DFF3CE055E0FCF709FF00EBC00101EB1F
:10519000001061684900B0FBF1F0B0FBF5F00601CA
:1051A000FCF7FCFE00EBC00101EB00106168490058
:1051B000B0FBF1F7FCF7F2FE00EBC00101EB0010D1
:1051C00061684900B0FBF1F0B0FBF5F06FF0180139
:1051D000484307EB800108EBC100B0FBF5F000F09D
:1051E000F80006EB4006FCF7D9FE00EBC00101EB2E
:1051F000001061684900B0FBF1F7FCF7CFFE00EB4F
:10520000C00101EB001061684900B0FBF1F0B0FB98
:10521000F5F06FF01801484307EB800108EBC1007F
:10522000B0FBF5F000F00700216830448860BDE86D
:10523000F081FCF7B3FE00EBC00101EB00106168E8
:105240008900B0FBF1F6FCF7A9FE00EBC00101EB11
:10525000001061688900B0FBF1F0B0FBF5F06FF071
:105260001801484306EB800108EB0110B0FBF5F094
:1052700000F0F006FCF792FE00EBC00101EB00101D
:1052800061688900B0FBF1F0B0FBF5F006EB0016A9
:10529000FCF784FE00EBC00101EB0010616889009F
:1052A000B0FBF1F7FCF77AFE00EBC00101EB001058
:1052B00061688900B0FBF1F0B0FBF5F06FF0180108
:1052C000484307EB800108EB0110B0FBF5F000F05C
:1052D0000F00A9E70014014000100140FEE70000A4
:1052E00001B584B0012104A864228DE807000B46B3
:1052F000002278210248FCF753FC05B000BD0000F5
:105300009407002001B584B0012104A864228DE82F
:1053100007000B46402278210248FCF741FC05B00B
:1053200000BD0000940700200907090E002804DBD7
:1053300000F1E02080F80014704700F00F0000F149
:10534000E02080F8141D704710EE100A10B5A0F58B
:1053500000014FF0000CB1F1FE4F6CD200F50021BE
:105360006FF07E0202EBE153C1F302524FF07E5127
:1053700001EB025100EE901AA0EBC3500CEB0301BD
:1053800000EE100A51EA020036D030EE601A30EE1C
:10539000200AC1EE000A20EEA00A60EE801A9FEDFE
:1053A0003D2A9FED3D1A3D48DFED3F2A00EE021AEF
:1053B000784400EB82009FED3A2A21EE810A01EE4B
:1053C000101AD0ED001A3748B8EEC11A784400EB35
:1053D000820041EE021A01EE101A90ED002AB8EE9A
:1053E000C11A01EE222A9FED311A32EE000A00EEB8
:1053F000810A31EE800A10BDF7EE000A9FED2D1AEA
:1054000070EE600A9FED2A0A00EE801A9FED2A0ACC
:1054100060EEA01A00EE810A9FED281A00EE801AB5
:1054200021EE810A9FED261A00EE810AB5EE0B1AD5
:1054300000EE810A10BD4FF07F41B1EB400F03D267
:10544000BDE8104000F04AB8B0F1FF4F08BF10BDF2
:10545000B5EEC00AF1EE10FA06D2012000F05AF8BB
:10546000BDE8104000F03EB8B5EEC00AF1EE10FA0B
:1054700007D1022000F04EF800F026F8B1EE400A05
:1054800010BDDFED100A6FF0160C20EE200A10EEB2
:10549000100A63E7DE02323E3B3D943E6415000095
:1054A00000209A3E68150000FC849A36D95B5E3F66
:1054B000924FA93D7279DEBD2D3E143ED85B5EBE93
:1054C000157B4B3C0000004BDFED030AB7EE001AE2
:1054D00081EE200A704700000000000030EE000A54
:1054E00070470000DFED020A80EEA00A704700005E
:1054F0000000000002E008C8121F08C1002AFAD10B
:1055000070477047002001E001C1121F002AFBD143
:1055100070470000014908607047000090010020BA
:105520002DED088B82B0FCF70FFCFFF789FBFEF72F
:10553000CFFEFEF797FEFEF7DFFFFFF747F8FEF717
:10554000DBFDFFF717F9FEF7F7FFFEF725FEFFF784
:1055500015F8FEF75FFEFFF7E5F8FFF7BFF8FFF776
:1055600087F8FBF72BFA2022FA49FB48FBF7A4FD4A
:105570000A22FA49FA48FBF79FFD6420FCF70EF96E
:10558000FFF733F9FFF714F908240023F5A21946B1
:1055900006200094FFF7DBFA0023F6A20121062083
:1055A0000094FFF7D4FADFF8D48301228021454626
:1055B0004046FCF72FFA002221032846FCF72AFA7E
:1055C0006420FCF7EBF8FFF7F3F80026CDE9006460
:1055D0000523324631463046FFF77AFACDE90064BA
:1055E0000022052311464020FFF772FACDE900643E
:1055F0000022052301211046FFF76AFACDE9006475
:105600000523002201214020FFF762FA0023DCA2DB
:10561000194618460094FFF79AFA0023DBA20121ED
:1056200018460094FFF793FA0023DBA202211846E4
:105630000094FFF78CFADB48FCF7C6FFDA48FCF76A
:10564000D5FFDA48FCF7D2FF0021D948FDF7F0F981
:105650000120FBF7EFFA6423D64A0021D6480096D2
:10566000FBF7A6FE6423D34A1021D3480096FBF72C
:105670009FFED24F9FEDD28B9FEDD39B9FEDD4AB7E
:105680009FEDD5BBD64D4FF001094FF0020A4FF008
:10569000030B287820B1012842D002287ED1E3E014
:1056A000CDE9006404231A4695ED100B002140203B
:1056B000FFF76CF9CDE9006404231A4695ED160B4B
:1056C00001214020FFF762F9CDE90064042397ED42
:1056D000060B1A4602214020FFF758F90023C1A209
:1056E000032118460094FFF732FA0023BDA20421DB
:1056F00018460094FFF72BFA0023BAA2052118469A
:105700000094FFF724FA0023B6A20621184600945D
:10571000FFF71DFA0023B3A207211846009423E3E4
:105720000023B6A2042118460094FFF710FA0023C4
:10573000B2A2042140200094FFF709FACDE90064E9
:10574000002197ED000B012302220846FFF71EF906
:10575000CDE9006497ED020B0123022200213F20D6
:10576000FFF714F9CDE90064012397ED040B022241
:1057700019460020FFF70AF9CDE90064012397EDEF
:10578000060B022219463F20FFF700F9CDE900641D
:105790000123022297ED080B114600E0E6E200200B
:1057A000FFF7F4F8CDE90064022297ED100B012316
:1057B00011463F20FFF7EAF8CDE9006497ED140B9E
:1057C0000123022203210020FFF7E0F800238EA22C
:1057D000194618200094FFF7BAF900238CA2194645
:1057E00057200094FFF7B3F900238BA20121182062
:1057F0000094FFF7ACF9002389A2012157200094FF
:10580000FFF7A5F9002388A2022118200094FFF7D2
:105810009EF9002386A2022157200094FFF797F9F2
:10582000002385A2032118200094FFF790F900239C
:1058300083A203213F200094FFF789F905210B2063
:10584000FFF7A4F96648CDE900648030012390EDAC
:10585000100B032205215720FFF798F8002305219C
:1058600079A2752000947FE2002364A204211846E7
:105870000094FFF76CF9002360A2042140200094FB
:10588000FFF765F9002357A2032118460094FFF79C
:105890005EF900233AA2194618460094FFF757F91B
:1058A00000233AA2012118460094FFF750F9002383
:1058B00039A2022118460094FFF749F9CDE90064A6
:1058C00004231A4695ED140B00214020FFF75EF8E3
:1058D000CDE9006404231A4695ED180B0121402000
:1058E000FFF754F83548CDE90064A030042390ED6B
:1058F000060B1A4602214020FFF748F895ED140BDD
:1059000053EC182B51EC100BFAF78EFE02D885F8E9
:105910000490E1E0B0EE480AF0EE680A53EC102B78
:1059200095ED140B51EC100BFAF796FE11D295ED94
:10593000100B53EC192B51EC100BFAF72BFD95EDD6
:10594000141B53EC112BFAF787FE7FD885F804A0BF
:10595000C2E07BE0EC020020700500202C03002058
:10596000B80500204F4C45442054455354204F4B1C
:105970002E000000414443204F4B2E0000100240F7
:1059800052696E286B4F686D29000000526F757464
:10599000284F686D290000004761696E28646229FC
:1059A00000000000C008002000090020400900207D
:1059B00040080020A8040020C0060020400300206A
:1059C0009A9999999999C93F666666666666E63FAF
:1059D00000000000000000400000000000005940EE
:1059E00028000020202020202020202020202020EF
:1059F0002020202020202020000000002020202027
:105A000020202020200000003A35302020200000F7
:105A10003A313030202000003A353030202000006C
:105A20003A316B20202000003A31306B20200000FA
:105A30003A3130306B2000003A3230306B200000B9
:105A400047286462292F46006B00000095ED100B7B
:105A500053EC192B51EC100BFAF79CFC95ED141B31
:105A600053EC112BFAF7E0FD10D295ED100B53EC2F
:105A70001A2B51EC100BFAF78DFC95ED141B53EC1F
:105A8000112BFAF7E9FD01D82E7125E095ED100BE9
:105A900053EC1A2B51EC100BFAF77CFC95ED141B10
:105AA00053EC112BFAF7C0FD0BD295ED140B53EC10
:105AB0001B2B51EC100BFAF7B7FD02D885F804B098
:105AC0000AE095ED140B53EC1B2B51EC100BFAF77D
:105AD000C3FD01D2042028719FEDA80B53EC102BBD
